S0110000736D6172745F626F782E7372656344
S113000045C000005AC4000086C40000B2C4000009
S1130010DEC400000AC5000036C5000062C5000049
S11300208EC5000051C000004FC000004DC000004C
S11300304BC0000049C0000047C0000045C000009C
S113004043C0000041C00000A3C60000F7C6000082
S1130050CAC6000039C0000037C0000035C0000027
S113006033C0000031C000002FC000002DC00000CC
S11300702BC0000029C000000CC7000060C70000AE
S113008033C7000021C000001FC0000011241FBEA0
S1130090CFEFD0E1DEBFCDBF11E0A0E0B1E0E4E2FC
S11300A0F4E100E00BBF02C007900D92A630B10747
S11300B0D9F721E0A6E0B1E001C01D92A83AB20749
S11300C0E1F750D10C94100A9BCF85B38E7F85BB8A
S11300D084B3816084BB8FEB93E00197F1F700C098
S11300E0000084B38E7F84BB90EA9A95F1F783B3C2
S11300F08170E7E4F3E03197F1F700C00000089560
S113010095B39E7F95BB94B3916094BB92E09A950E
S1130110F1F700C0882319F084B38E7F84BB80EA92
S11301208A95F1F784B38E7F84BB089585B38E7F5F
S113013085BB84B3816084BB82E08A95F1F700C0FB
S113014084B38E7F84BB95E29A95F1F70000989969
S113015002C080E001C081E098E79A95F1F7089524
S1130160CF93DF93C82F88E005C08C2F8170C8DF40
S1130170C6958D2FDFEFD80F8111F7CFDF91CF9187
S11301800895CF93DF9380E098E009C0C82FC69507
S1130190CDDF20E8829FC00111248C2B9D2FDFEF3F
S11301A0D90F9111F3CFDF91CF910895CF93F894A4
S11301B08CDF8CECD5DF84E4D3DFB8DF8823E9F36C
S11301C084DF8CECCDDF8EEBCBDFDBDFC82FD9DF18
S11301D07894682F70E0762F66276C0F711D072EB8
S11301E0000C880B990BB0D720E030E040E85DE3C9
S11301F00E940C09CF91089561E067C2089560E000
S113020064C2089560E0BAC00895B0D1882311F0A3
S113021080E0089581E0089561E057C2089560E0A8
S113022054C20895BAC40895CF93C82FBFD48C2F55
S1130230CDD4C4D4CF910895EF92FF921F93CF935E
S1130240DF937C01162FC0E0D0E006C0F701EC0F6D
S1130250FD1F8081E9DF2196812F90E0C817D9071F
S1130260ACF3DF91CF911F91FF90EF90089561E07F
S113027085C0089561E029C2089560E026C208950A
S113028080910601D9D4E0910701F0E0E65DFE4FCC
S11302908083809107018F5F80930701809107011C
S11302A0873078F4E0910701F0E0E75DFE4F90813C
S11302B0E0910701F0E0E150FF4F80819813109224
S11302C0070180910701823318F081E080932901AE
S11302D00895CF93C82F8093060182D440E451E05F
S11302E060E08C2FB4D4CF910895AC012EE130E0BE
S11302F00BC0F9017E97E40FF51FD901A65DBE4F2F
S11303009C9190832F5F3F4F2B32310594F30895D6
S1130310AC0121E130E00BC0F9017197E40FF51F46
S1130320D901A65DBE4F9C9190832F5F3F4F2D3125
S1130330310594F3089580912901089510922901BB
S1130340089561E0C2C1089560E0BFC1089561E00D
S113035015C0089561E0B9C1089560E0B6C108957B
S113036005C108959FE088E10FB6F894A89581BD72
S11303700FBE91BD54D678D6A895FDCF8830E8F449
S1130380613069F44AB321E030E0B90102C0660F7C
S1130390771F8A95E2F7CB01842B8ABB08954AB371
S11303A021E030E0B90102C0660F771F8A95E2F7B9
S11303B0CB01809584238ABB089598EF980F9830D9
S11303C0F8F4613071F447B3877021E030E0B9018B
S11303D002C0660F771F8A95E2F7CB01842B87BB97
S11303E0089547B3877021E030E0B90102C0660F79
S11303F0771F8A95E2F7CB018095842387BB089504
S113040090EF980F9830F8F4613071F444B38F7022
S113041021E030E0B90102C0660F771F8A95E2F748
S1130420CB01842B84BB089544B38F7021E030E06A
S1130430B90102C0660F771F8A95E2F7CB01809558
S1130440842384BB089598EE980F983088F5613022
S1130450B9F441B39BEA899F912D112492959F7021
S113046078E1979F8019112421E030E0B90102C09E
S1130470660F771F8A95E2F7CB01842B81BB089521
S113048041B39BEA899F912D112492959F7078E145
S1130490979F8019112421E030E0B90102C0660F52
S11304A0771F8A95E2F7CB018095842381BB089559
S11304B090EE980F9830F8F4613071F442B18F7176
S11304C021E030E0B90102C0660F771F8A95E2F798
S11304D0CB01842B82B9089542B18F7121E030E0C1
S11304E0B90102C0660F771F8A95E2F7CB018095A8
S11304F0842382B9089598ED980F9830B0F561304F
S1130500D1F4E1E6F0E040819DEC899F912D112426
S113051092959695977078E2979F8019112421E01F
S113052030E0B90102C0660F771F8A95E2F7CB016C
S1130530842B80830895E1E6F0E040819DEC899F5F
S1130540912D112492959695977078E2979F801932
S1130550112421E030E0B90102C0660F771F8A95AB
S1130560E2F7CB0180958423808308958830B0F42A
S113057099B321E030E0A901082E02C0440F551FB1
S11305800A94E2F7292F30E024233523A90102C07D
S1130590559547958A95E2F7CA01089598EF980F03
S11305A09830B0F456B3482F477081E090E09C0136
S11305B0042E02C0220F331F0A94E2F7852F90E025
S11305C08223932302C0959587954A95E2F708956F
S11305D090EF980F9830B0F453B3482F4F7081E0E8
S11305E090E09C01042E02C0220F331F0A94E2F70C
S11305F0852F90E08223932302C0959587954A9591
S1130600E2F7089598EE980F9830F8F450B39BEA07
S1130610899F912D112492959F70482F28E1929FD4
S11306204019112481E090E09C01042E02C0220FA5
S1130630331F0A94E2F7852F90E08223932302C0AC
S1130640959587954A95E2F7089590EE980F98301E
S1130650B0F451B1482F4F7181E090E09C01042E19
S113066002C0220F331F0A94E2F7852F90E0822301
S1130670932302C0959587954A95E2F7089598EDDE
S1130680980F983000F550B19DEC899F912D11245D
S1130690929596959770482F28E2929F40191124BD
S11306A081E090E09C01042E02C0220F331F0A94C3
S11306B0E2F7852F90E08223932302C095958795D6
S11306C04A95E2F7089580E008958830E8F46130AF
S11306D069F44BB321E030E0B90102C0660F771F23
S11306E08A95E2F7CB01842B8BBB08954BB321E0B1
S11306F030E0B90102C0660F771F8A95E2F7CB019B
S1130700809584238BBB089598EF980F9830F8F464
S1130710613071F448B3877021E030E0B90102C060
S1130720660F771F8A95E2F7CB01842B88BB089567
S113073048B3877021E030E0B90102C0660F771F2B
S11307408A95E2F7CB018095842388BB089590EFC6
S1130750980F9830F8F4613071F445B38F7021E04C
S113076030E0B90102C0660F771F8A95E2F7CB012A
S1130770842B85BB089545B38F7021E030E0B90127
S113078002C0660F771F8A95E2F7CB018095842318
S113079085BB089598EE980F983088F56130B9F4C8
S11307A042B39BEA899F912D112492959F7078E121
S11307B0979F8019112421E030E0B90102C0660F2F
S11307C0771F8A95E2F7CB01842B82BB089542B34D
S11307D09BEA899F912D112492959F7078E1979FB0
S11307E08019112421E030E0B90102C0660F771F9F
S11307F08A95E2F7CB018095842382BB089590EE1D
S1130800980F9830F8F4613071F443B18F7121E09E
S113081030E0B90102C0660F771F8A95E2F7CB0179
S1130820842B83B9089543B18F7121E030E0B9017D
S113083002C0660F771F8A95E2F7CB018095842367
S113084083B9089598ED980F9830B0F56130D1F4DC
S1130850E2E6F0E040819DEC899F912D1124929570
S11308609695977078E2979F8019112421E030E0E3
S1130870B90102C0660F771F8A95E2F7CB01842B7A
S113088080830895E2E6F0E040819DEC899F912DFC
S1130890112492959695977078E2979F8019112468
S11308A021E030E0B90102C0660F771F8A95E2F7B4
S11308B0CB0180958423808308951F920F920FB6F5
S11308C00F9211240BB60F922F933F934F935F9384
S11308D06F937F938F939F93AF93BF93EF93FF9304
S11308E0E0911601F0911701099588B7816088BFDE
S11308F0FF91EF91BF91AF919F918F917F916F91F4
S11309005F914F913F912F910F900BBE0F900FBEAF
S11309100F901F9018951F920F920FB60F921124EB
S11309200BB60F922F933F934F935F936F937F93E5
S11309308F939F93AF93BF93EF93FF93E091140131
S1130940F0911501099588B7826088BFFF91EF91F6
S1130950BF91AF919F918F917F916F915F914F91D3
S11309603F912F910F900BBE0F900FBE0F901F90D1
S113097018951F920F920FB60F9211240BB60F9277
S11309802F933F934F935F936F937F938F939F9393
S1130990AF93BF93EF93FF93E0911201F091130192
S11309A0099588B7846088BFFF91EF91BF91AF919B
S11309B09F918F917F916F915F914F913F912F9173
S11309C00F900BBE0F900FBE0F901F9018951F92A3
S11309D00F920FB60F9211240BB60F922F933F93E1
S11309E04F935F936F937F938F939F93AF93BF9333
S11309F0EF93FF93E0911001F0911101099588B7ED
S1130A00886088BFFF91EF91BF91AF919F918F91C3
S1130A107F916F915F914F913F912F910F900BBEFA
S1130A200F900FBE0F901F9018951F920F920FB644
S1130A300F9211240BB60F922F933F934F935F9312
S1130A406F937F938F939F93AF93BF93EF93FF9392
S1130A50E0910E01F0910F01099588B7806188BF7C
S1130A60FF91EF91BF91AF919F918F917F916F9182
S1130A705F914F913F912F910F900BBE0F900FBE3E
S1130A800F901F9018951F920F920FB60F9211247A
S1130A900BB60F922F933F934F935F936F937F9374
S1130AA08F939F93AF93BF93EF93FF93E0910C01C8
S1130AB0F0910D01099588B7806288BFFF91EF918D
S1130AC0BF91AF919F918F917F916F915F914F9162
S1130AD03F912F910F900BBE0F900FBE0F901F9060
S1130AE018951F920F920FB60F9211240BB60F9206
S1130AF02F933F934F935F936F937F938F939F9322
S1130B00AF93BF93EF93FF93E0910A01F0910B0130
S1130B10099588B7806488BFFF91EF91BF91AF9129
S1130B209F918F917F916F915F914F913F912F9101
S1130B300F900BBE0F900FBE0F901F9018951F9231
S1130B400F920FB60F9211240BB60F922F933F936F
S1130B504F935F936F937F938F939F93AF93BF93C1
S1130B60EF93FF93E0910801F0910901099588B78B
S1130B70806888BFFF91EF91BF91AF919F918F9152
S1130B807F916F915F914F913F912F910F900BBE89
S1130B900F900FBE0F901F9018951092710088E06F
S1130BA08093700084E080937400089584EA8093B5
S1130BB07400809174008823E4F7089584E9809395
S1130BC0740081E28A95F1F7000008958093730020
S1130BD084E880937400809174008823E4F7089576
S1130BE0CF93C82FFB01CA01B901689413F89695F5
S1130BF08795779567951694D1F79F0140E050E06B
S1130C00BAD321503109C11109C03093900029B9D8
S1130C1088E18AB986E0809395000CC0C13051F414
S1130C20309398002093990088E180939A0086E09D
S1130C3080939D00CF910895811102C08CB10895D5
S1130C40813019F480919C00089580E008959FB745
S1130C5090689FBF81111EC0611108C08AB180686D
S1130C608AB950932101409320010895613041F4E1
S1130C708AB180648AB950931F0140931E0108957C
S1130C80623049F58AB180628AB950931D0140935C
S1130C901C0108958130F9F461110AC0EAE9F0E019
S1130CA080818068808350931B0140931A010895CA
S1130CB0613031F4EAE9F0E0808180648083089552
S1130CC0623049F4EAE9F0E08081806280835093E5
S1130CD01901409318010895811112C0611104C0D3
S1130CE08AB18F778AB90895613021F48AB18F7BF4
S1130CF08AB908956230E9F48AB18F7D8AB908957A
S1130D008130B9F4611106C0EAE9F0E080818F779F
S1130D1080830895613031F4EAE9F0E080818F7BCB
S1130D2080830895623029F4EAE9F0E080818F7DC0
S1130D3080830895811112C0611104C08AB1806852
S1130D408AB90895613021F48AB180648AB908951A
S1130D506230E9F48AB180628AB908958130B9F4C5
S1130D60611106C0EAE9F0E080818068808308951B
S1130D70613031F4EAE9F0E0808180648083089591
S1130D80623029F4EAE9F0E080818062808308958A
S1130D901F920F920FB60F9211240BB60F922F933E
S1130DA03F934F935F936F937F938F939F93AF93EF
S1130DB0BF93EF93FF93E0912001F09121010995F6
S1130DC0FF91EF91BF91AF919F918F917F916F911F
S1130DD05F914F913F912F910F900BBE0F900FBEDB
S1130DE00F901F9018951F920F920FB60F92112417
S1130DF00BB60F922F933F934F935F936F937F9311
S1130E008F939F93AF93BF93EF93FF93E0911E0152
S1130E10F0911F010995FF91EF91BF91AF919F91BF
S1130E208F917F916F915F914F913F912F910F908F
S1130E300BBE0F900FBE0F901F9018951F920F922C
S1130E400FB60F9211240BB60F922F933F934F932B
S1130E505F936F937F938F939F93AF93BF93EF931E
S1130E60FF93E0911C01F0911D010995FF91EF9111
S1130E70BF91AF919F918F917F916F915F914F91AE
S1130E803F912F910F900BBE0F900FBE0F901F90AC
S1130E9018951F920F920FB60F9211240BB60F9252
S1130EA02F933F934F935F936F937F938F939F936E
S1130EB0AF93BF93EF93FF93E0911A01F0911B015D
S1130EC00995FF91EF91BF91AF919F918F917F9180
S1130ED06F915F914F913F912F910F900BBE0F90A7
S1130EE00FBE0F901F9018951F920F920FB60F927E
S1130EF011240BB60F922F933F934F935F936F93ED
S1130F007F938F939F93AF93BF93EF93FF93E0915E
S1130F101E01F0911F010995FF91EF91BF91AF91CF
S1130F209F918F917F916F915F914F913F912F91FD
S1130F300F900BBE0F900FBE0F901F9018951F922D
S1130F400F920FB60F9211240BB60F922F933F936B
S1130F504F935F936F937F938F939F93AF93BF93BD
S1130F60EF93FF93E0911801F09119010995FF9116
S1130F70EF91BF91AF919F918F917F916F915F910D
S1130F804F913F912F910F900BBE0F900FBE0F907A
S1130F901F90189581E040D984E237D980932301CA
S1130FA081E03DC90895CF92DF92EF92FF9280E0F5
S1130FB023D9FCD86B017C0120E030E040EF51E400
S1130FC027D1181624F481E08093220102C01092E4
S1130FD02201C701B60185D0DC01CB014AE064E2FD
S1130FE071E0EBD180E00BD9FF90EF90DF90CF90D0
S1130FF00895A1D9882391F082E0A6D98BE991E0E4
S113100087D98EE891E071D999D960E080E064DEF7
S1131010CADF60E080E08EDE82E093C9089580E05C
S1131020EED884E2EFD884E2FAD8FCD88CE01FD959
S11310308CE023D920E032E14AE750E060E875E231
S113104080E047D982E07DD981E181D981E185C9F8
S1131050089585E285D9813021F481E17BD99ACF45
S1131060089581E17AC90895C4DF82E06DD981E4ED
S1131070DBD86DE08EE891E0DFD882E4D5D883E454
S1131080D3D86DE08BE991E0D7D884E4CDD882E061
S113109058D9DFDF85E4C8D880912301813019F461
S11310A089E5C2D802C08EE4BFD886E4BDD883E007
S11310B08A95F1F7000087E4B7D864E084E291E010
S11310C0BBD888E4B1D883E08A95F1F70000809119
S11310D02201813019F48CE0CDC808958CE0CDC88C
S11310E0089504D06894B1118DC0089570D088F02B
S11310F09F5790F0B92F9927B751A0F0D1F0660F00
S1131100771F881F991F1AF0BA95C9F712C0B1301A
S113111081F077D0B1E0089574C0672F782F8827C5
S1131120B85F39F0B93FCCF3869577956795B39559
S1131130D9F73EF490958095709561957F4F8F4FC8
S11311409F4F0895E89409C097FB3EF490958095CD
S1131150709561957F4F8F4F9F4F9923A9F0F92F79
S113116096E9BB279395F695879577956795B795F7
S1131170F111F8CFFAF4BB0F11F460FF1BC06F5FDD
S11311807F4F8F4F9F4F16C0882311F096E911C0EF
S1131190772321F09EE8872F762F05C0662371F010
S11311A096E8862F70E060E02AF09A95660F771F24
S11311B0881FDAF7880F9695879597F9089557FD54
S11311C09058440F551F59F05F3F71F04795880FB1
S11311D097FB991F61F09F3F79F087950895121648
S11311E013061406551FF2CF4695F1DF08C01616F4
S11311F017061806991FF1CF8695710561050894A5
S11312000895E894BB2766277727CB0197F90895BB
S113121066D008F48FEF08950BD09CC08DD028F0D1
S113122092D018F0952309F07EC083C01124EACF30
S1131230C6DFA0F3959FD1F3950F50E0551F629F31
S1131240F001729FBB27F00DB11D639FAA27F00D1B
S1131250B11DAA1F649F6627B00DA11D661F829F42
S11312602227B00DA11D621F739FB00DA11D621F27
S1131270839FA00D611D221F749F3327A00D611D44
S1131280231F849F600D211D822F762F6A2F112426
S11312909F5750408AF0E1F088234AF0EE0FFF1F79
S11312A0BB1F661F771F881F91505040A9F79E3FB0
S11312B0510570F038C0A6CF5F3FECF3983EDCF3E5
S11312C0869577956795B795F795E7959F5FC1F7ED
S11312D0FE2B880F911D9695879597F90895990F80
S11312E00008550FAA0BE0E8FEEF16161706E807EC
S11312F0F907C0F012161306E407F50798F0621B0D
S1131300730B840B950B39F40A2661F0232B242BE1
S1131310252B21F408950A2609F4A140A6958FEF00
S1131320811D811D089597F99F6780E870E060E052
S113133008959FEF80EC089500240A94161617066A
S113134018060906089500240A94121613061406B2
S113135005060895092E0394000C11F4882352F015
S1131360BB0F40F4BF2B11F460FF04C06F5F7F4FCD
S11313708F4F9F4F0895A1E21A2EAA1BBB1BFD019C
S11313800DC0AA1FBB1FEE1FFF1FA217B307E40760
S1131390F50720F0A21BB30BE40BF50B661F771FB8
S11313A0881F991F1A9469F7609570958095909598
S11313B09B01AC01BD01CF010895BB274A3031F434
S11313C0992322F4BDE2909581959F4F01C0BB27DC
S11313D0FB015527AA27880F991FAA1FA41710F0ED
S11313E0A41B83955051B9F7A05DAA3308F0A95DF9
S11313F0A193009779F7B111B1931192CB0100C079
S1131400DC01FC01672F71917723E1F7329704C067
S11314107C916D9370836291AE17BF07C8F30895F2
S1071420F894FFCF6A
S109142424475047474134
S9030000FC
